:02000000742F5B
:100EE8007B2782278B277B2782279527742F03133D
:100EF80083168610D5278614D5270800A727A72785
:100F0800A027A027A727A727A027A0270800A7274B
:100F1800A727A027A727A727A727A027A727B62758
:100F28000800A727A027A027A027A027A027A72732
:100F3800A027AE27AE270800031383168610D027F4
:100F48008614C6270800031383168610C62786143E
:100F5800D02708000830AD000030A400B627AD0B3C
:100F6800B22F0800031383168610D0278614CB27C8
:100F7800BF27C6270800861CC32F2414A40D2410DD
:100F8800A40D08006230A300A30BC82F080010307E
:100F9800AE00AE0BCD2F08000130A200A20BD22F5D
:100FA80008000430A100D9270800FF30A000A00BDA
:100FB800DB2FA10BD92F0800031383160615031383
:100FC800831618111812203003138316990003137F
:100FD80083129817031383169816F3270800031330
:100FE8008316981CF52F03138312240899000D30DB
:080FF80099000A30990008007D
:02400E000A3F67
:00000001FF
