:02000000FE2FD1
:100F4200E527BA27A827E527BA27B1270028C3270C
:100F5200C327D427C327C327C327D427C3270800FF
:100F6200C327D427D427D427D427D427C327D427C9
:100F72000800C327C327D427D427C327C327D427CE
:100F8200D42708008316031386107730F000F00B85
:100F9200C82FCB2F8316031386140630F000F00BF4
:100FA200D02F000008008316031386100630F000CD
:100FB200F00BD92F00008316031386147730F0004C
:100FC200F00BE12FE42F0800831603138610033081
:100FD200F1009730F000F00BEC2FF10BEC2FF12F1A
:100FE2008316031386140330F1009730F000F00BE0
:0E0FF200F82FF10BF82FFD2F08008301A12F1F
:02400E000A3F67
:00000001FF
