:02000000F32FDC
:100DF8000E270E271F270E270E270E271F270E2721
:100E080008000E270E271F271F270E270E271F272C
:100E18001F2708008316031386107730F000F00BA5
:100E2800132F162F8316031386140630F000F00BC9
:100E38001B2F000008008316031386100630F000ED
:100E4800F00B242F00008316031386147730F0006C
:100E5800F00B2C2F2F2F08002030F0000030F1006D
:100E6800F2000930F3000030F40041275A27052723
:100E7800FC265A270527992700287008F5004B2FCC
:100E8800750884007108831380000130F50701306C
:100E9800F3020030031CF403F402730A031D582FF5
:100EA800740A031D582F592F442F08008316031363
:100EB80086100330F1009730F000F00B612FF10B32
:100EC800612F662F8316031386140330F1009730C1
:100ED800F000F00B6D2FF10B6D2F722F0800F3014E
:100EE800F4018316031386100630F200F20B7A2FF2
:100EF80000008316031386140630F200F20B822FCB
:100F0800000083160313861C8A2F8B2F8F2F013026
:100F1800F3000030F4004230F200F20B912F000091
:100F28007408F1007308F00008000E271F271F2718
:100F38001F271F271F270E271F27F601F701F80174
:100F4800F9017327700871040319AB2FAC2FBC2F5C
:100F58007608203E84000130F500780AB52F03108A
:100F6800F50DFF3E031DB32F750883138004CC2FA6
:100F78007608203E84000130F500780AC52F03105A
:100F8800F50DFF3E031DC32F7508FF3A8313800537
:100F98000130F8070318F90A0030F9077908803A90
:100FA800FF0080307F02031DDB2F08307802031C0E
:100FB800DE2FDF2FA52F0130F6070318F70A0030C0
:100FC800F7077708803AFF0080307F02031DEE2F75
:100FD80009307602031CF12FF22FA32F0800831289
:100FE8000313A001A101A201A301A401A501A60167
:080FF800A701A8018301302FBD
:02400E000A3F67
:00000001FF
