:020000008A2F45
:100F140091279827A12791279827AA278A2F031377
:100F240083168610D1278614D1270800BA27BA273A
:100F3400B327B327BA27BA27B327B3270800BA279A
:100F4400BA27B327BA27BA27BA27B327BA2708007C
:100F5400BA27B327B327B327B327B327BA27B327AF
:100F64000800031383168610CC278614C7270800AD
:100F7400031383168610C7278614CC27080003138F
:100F840083168610CC278614861C6230A300A30B1C
:100F9400C92F08000A30A200A20BCE2F080004308B
:100FA400A100D5270800FF30A000A00BD72FA10B6C
:100FB400D52F08000313831686140615031383160E
:100FC400181118121930031383169900031383128E
:100FD40098171816080003138316861406150313AE
:100FE400831618111812193003138316990003136A
:0C0FF40083129817031383169816080048
:02400E000A3F67
:00000001FF
