:02000000AF2E21
:100D5E00B626BD26C626B626BD26D026AF2E031332
:100D6E0083168610A1278614A1270800EB26EB26F2
:100D7E00E426E426EB26EB26E426E4260800EB2602
:100D8E00EB26E426EB26EB26EB26E426EB26F226D4
:100D9E000800EB26E426E426E426E426E426EB26E9
:100DAE00E426F9260A271B272C273D274E275F27E7
:100DBE007027812781278127080003138316861049
:100DCE009C278614922708000313831686109227F9
:100DDE0086149C2708000313831686109C278614FE
:100DEE00972708000830AD000030A400F226022735
:100DFE00AD0BFD2E0800861C062FA417A40CA41301
:100E0E00A40C922708000830AD000030A500F22691
:100E1E001327AD0B0E2F0800861C172FA517A50C38
:100E2E00A513A50C922708000830AD000030A600CF
:100E3E00F2262427AD0B1F2F0800861C282FA6177D
:100E4E00A60CA613A60C922708000830AD000030A1
:100E5E00A700F2263527AD0B302F0800861C392F40
:100E6E00A717A70CA713A70C922708000830AD00F0
:100E7E000030A800F2264627AD0B412F0800861C35
:100E8E004A2FA817A80CA813A80C92270800083000
:100E9E00AD000030A900F2265727AD0B522F0800E7
:100EAE00861C5B2FA917A90CA913A90C9227080061
:100EBE000830AD000030AA00F2267927AD0B632F63
:100ECE000800861C6C2FA417A40CA413A40C922744
:100EDE0008000830AD000030AB00F2268A27AD0BBB
:100EEE00742F0800861C7D2FAB17AB0CAB13AB0C0D
:100EFE00922708000830AD000030AC00F2268A2799
:100F0E00AD0B852F0800861C8E2FAC17AC0CAC13C6
:100F1E00AC0C922708006330A300A30B942F08009B
:100F2E001030AE00AE0B992F08000130A200A20BBC
:100F3E009E2F08000430A100A5270800FF30A00056
:100F4E00A00BA72FA10BA52F0800031383160615C0
:100F5E0003138316181118122030031383169900E9
:100F6E00031383129817031383169816BF270800CE
:100F7E002408C6270D30C6270A30C62708000313DB
:100F8E008316981CC82F03138312990008000313AD
:100F9E008316240C240C240C240CC001C000250D37
:100FAE00250D250D250DC00403138316A51DC008A0
:100FBE00E2000A30620203180800E000DE2F0A3C4D
:100FCE00031C0800E10AE62F0301303ED000013E6B
:100FDE00D100013ED200013ED300013ED400013EBD
:100FEE00D500013ED600013ED700013ED800013E9D
:020FFE00D90018
:02400E000A3F67
:00000001FF
