:02000000712F5E
:100EE200792780278927792780279327DE27712F63
:100EF200031383168610D3278614D3270800A52749
:100F0200A5279E279E27A527A5279E279E2708005F
:100F1200A527A5279E27A527A527A5279E27A5277D
:100F2200B4270800A5279E279E279E279E279E2737
:100F3200A5279E27AC27AC2708000313831686102B
:100F4200CE278614C4270800031383168610C427ED
:100F52008614CE2708000830AD000030A400B42764
:100F6200AD0BB02F0800031383168610CE2786140C
:100F7200C927BD27C4270800861CC12FA417A40CAB
:100F8200A413A40C08006330A300A30BC62F08000F
:100F92001030AE00AE0BCB2F08000130A200A20B26
:100FA200D02F08000430A100D7270800FF30A0008E
:100FB200A00BD92FA10BD72F0800031383160615F8
:100FC2000313831618111812203003138316990085
:100FD200031383129817031383169816F127080038
:100FE2002408F8270D30F8270A30F82708000313E1
:0E0FF2008316981CFA2F03138312990008002F
:02400E000A3F67
:00000001FF
