:02000000F32FDC
:100DD8008316031386109530F000F00BF12EF42ED5
:100DE8008316031386140830F000F00BF92E080060
:100DF8008316031386100830F000F00B012F8316BA
:100E0800031386149530F000F00B082F0B2F080001
:100E18002030F0000030F100F2000930F30000301B
:100E2800F40022273B27CC307827443078273B270B
:100E3800CC307827BE307827A12700287008F50025
:100E48002C2F750884007108831380000130F50782
:100E58000130F3020030031CF403F402730A031D8B
:100E6800392F740A031D392F3A2F252F08008316AE
:100E7800031386100430F1003D30F000F00B422FD0
:100E8800F10B422F472F8316031386140430F10009
:100E98003D30F000F00B4E2FF10B4E2F532F080072
:100EA800F301F4018316031386100830F200F20BE5
:100EB8005B2F8316031386141030F200F20B622F97
:100EC800000083160313861C6A2F6B2F6F2F0130C7
:100ED800F3000030F4005330F200F20B712F740865
:100EE800F1007308F0000800F200F301F40101308A
:100EF800F100730A812F0310F10DFF3E031D7F2FB0
:100F0800710872050319892F8A2F8C2FFC268D2FC3
:100F1800EC260130F3070318F40A0030F4077408CC
:100F2800803AFF0080307F02031D9C2F0830730237
:100F3800031C9F2FA02F7B2F0800F601F701F80153
:100F4800F9015427700871040319AB2FAC2FBC2F7B
:100F58007608203E84000130F500780AB52F03108A
:100F6800F50DFF3E031DB32F750883138004CC2FA6
:100F78007608203E84000130F500780AC52F03105A
:100F8800F50DFF3E031DC32F7508FF3A8313800537
:100F98000130F8070318F90A0030F9077908803A90
:100FA800FF0080307F02031DDB2F08307802031C0E
:100FB800DE2FDF2FA52F0130F6070318F70A0030C0
:100FC800F7077708803AFF0080307F02031DEE2F75
:100FD80009307602031CF12FF22FA32F0800831289
:100FE8000313A001A101A201A301A401A501A60167
:080FF800A701A80183010C2FE1
:02400E000A3F67
:00000001FF
